:1000000025C049C048C047C046C0CCC144C043C059
:1000100042C041C040C03FC03EC03DC03CC00000E7
:100020000000370000000000380002020202020255
:10003000020202020102040810202004100801023A
:100040000000040000000000F0024E0311241FBE57
:10005000CFE5D2E0DEBFCDBF10E0A0E6B0E0E8E53E
:10006000F9E002C005900D92AE37B107D9F720E054
:10007000AEE7B0E001C01D92A43AB207E1F710E08C
:10008000C5E2D0E003C02197FE0127D3C432D107D7
:10009000D1F7D2D155C4B4CF90E0FC01E25CFF4F60
:1000A0002491FC01EC5CFF4F3491FC01E65DFF4FB5
:1000B000E491EE2321F1222399F0223071F028F40B
:1000C000213071F48AB58F770AC0233011F02430C3
:1000D00039F48CB58F7D8CBD03C08AB58F7D8ABD08
:1000E000F0E0EE0FFF1FEC5DFF4FA591B4918FB7CD
:1000F000F8949C91E32FE095E923EC938FBF08954A
:100100004F925F926F927F928F929F92AF92BF9227
:10011000EF92FF920F931F93CF93DF93EC018A012D
:100120009B01290166247724E42C812E922EA32E94
:10013000BB24F82CA02F40919200442389F0A42FD7
:10014000B0E0842D90E0BD01B7D2E92E882D90E07B
:10015000BD01B2D2F92E802F90E0BD01ADD2A92F02
:100160008091980090919500E0919300F091940017
:10017000891307C0CE0163E070E09ED2E80FF91F3B
:1001800017C0CC0FDD1FCC0FDD1FEC0FFD1F032FA1
:10019000112722273327EF01C80FD11D442331F047
:1001A000642F70E0802F90E087D201C0902F988359
:1001B00080919500EF01C80FD11DE88280919600D3
:1001C000EF01C80FD11DF88280919700E80FF11D53
:1001D000A083DF91CF911F910F91FF90EF90BF907F
:1001E000AF909F908F907F906F905F904F90089509
:1001F000CF93DF9390E0FC01EC5CFF4F2491FC0176
:10020000E65DFF4F8491882361F190E0880F991F8C
:10021000FC01E25EFF4FC591D491FC01EC5DFF4F04
:10022000A591B491611109C09FB7F8948881209578
:1002300082238883EC912E230BC0623061F49FB738
:10024000F8943881822F809583238883EC912E2B1C
:100250002C939FBF06C08FB7F894E8812E2B28837C
:100260008FBFDF91CF9108953FB7F89480918300BD
:1002700090918400A0918500B091860022B708B6C5
:1002800001FE05C02F3F19F00196A11DB11D3FBF12
:10029000BA2FA92F982F8827820F911DA11DB11D5C
:1002A000BC01CD0142E0660F771F881F991F4A9558
:1002B000D1F708950F931F93CF93DF93CDB7DEB798
:1002C00027970FB6F894DEBF0FBECDBFCDDF0091EC
:1002D000990010919A0020919B0030919C00DC01C4
:1002E000CB01801B910BA20BB30BC297A105B105EB
:1002F00068F3F89480918F00909190009A8389839D
:10030000E0919300F0919400DF01119680818F833A
:10031000E0919D00F0919E00908180919F00982B2C
:100320009E839081809589238D838D818C8388E045
:100330008B835E816D814F813B812C8189819A8184
:10034000508347FD252F3A952083262F39F0441FEF
:1003500000C000006083000000C0F2CF38E04D9183
:1003600060830000019761F7F0939E00E0939D0089
:100370004F833B832C839A838983789475DF6093C2
:10038000990070939A0080939B0090939C0027960D
:100390000FB6F894DEBF0FBECDBFDF91CF911F9196
:1003A0000F9108951F920F920FB60F9211242F9361
:1003B0003F938F939F93AF93BF9380917F009091D2
:1003C0008000A0918100B091820030917E0023E0F6
:1003D000230F2D3720F40196A11DB11D05C026E87D
:1003E000230F0296A11DB11D20937E0080937F00F4
:1003F00090938000A0938100B0938200809183004D
:1004000090918400A0918500B09186000196A11D75
:10041000B11D8093830090938400A0938500B093D6
:100420008600BF91AF919F918F913F912F910F9037
:100430000FBE0F901F90189578948AB582608ABD80
:100440008AB581608ABD83B7826083BF83B78160CC
:1004500083BF89B7826089BF80B7826080BF80B761
:10046000816080BF329A319A309A379A8CB5806415
:100470008CBD8091910087FD05C061E0B9DE80915F
:1004800091000ADE81E080938C008091930090912E
:100490009400892B09F00EDF30E0A32E30E0B32E5C
:1004A0009924939490928B00C0E0D0E080918D00CD
:1004B00090918E0048968C179D0708F465C000E067
:1004C00010E080918D0090918E000817190740F47C
:1004D00040E050E0BA01C80113DE0F5F1F4FF1CFBB
:1004E00026E6C22E20E0D22E7E0100E010E01E148F
:1004F0001F044CF50D30110524F4F6018081918123
:1005000009C0C8016EEF7FEFD7D08A599F4FFC0119
:1005100080A991A990938A00809389009093880084
:1005200080938700409189008091870020918D0001
:1005300030918E00E216F30630F450E060E070E097
:10054000682BC701DDDD0F5F1F4FF1E0EF1AF108E7
:1005500022E0C20ED11C0931110549F6CE0148979F
:1005600020918D0030918E008217930720F440E097
:1005700050E0BA01C5DD8091930090919400892BE1
:1005800009F098DE219692CF10928B006DDE6B0100
:100590007C0192E0492E512C612C712C65DEDC012E
:1005A000CB018C199D09AE09BF09883E9340A10576
:1005B000B105A0F388EEC80E83E0D81EE11CF11C43
:1005C0004A9445284628472829F0412C512C3201CD
:1005D0004394E4CFA114B10409F464CF11DD62CFD8
:1005E000CF93DF9310928C0010929200109299009A
:1005F00010929A0010929B0010929C0081E08093D0
:100600009800809395001092960082E08093970066
:10061000CCE2D1E0D0939000C0938F008CE291E0C7
:1006200062D09093940080939300009769F0FC014E
:100630009E01119221503040E1F784E690E09093C2
:100640008E0080938D0008C01092900010928F0051
:1006500010928E0010928D0083E080939100809123
:100660008C00882329F061E083E0C2DD83E014DDA3
:10067000EDE2F0E0E491F0E0EE0FFF1FEC5DFF4FE4
:100680008591949190939E0080939D00E7E3F0E024
:10069000E491E0939F00DF91CF91089580919300C2
:1006A00090919400009709F0B3D08091910087FD5C
:1006B00002C060E09DCD08950024552704C0080EB7
:1006C000591F880F991F009729F076956795B8F301
:1006D0007105B9F7802D952F0895EE0FFF1F059036
:1006E000F491E02D0994CF93DF938230910510F4BB
:1006F00082E090E0E091A200F091A30020E030E0E1
:10070000C0E0D0E0309711F140815181481759077E
:10071000C0F04817590761F482819381209719F03E
:100720009B838A832BC09093A3008093A20026C052
:100730002115310519F04217530718F49A01BE012B
:10074000DF01EF010280F381E02DDCCF21153105BF
:1007500009F1281B390B2430310590F412968D9144
:100760009C9113976115710521F0FB01938382839E
:1007700004C09093A3008093A200FD01329644C070
:10078000FD01E20FF31F81939193225031092D93C4
:100790003C933AC02091A0003091A100232B41F45A
:1007A00020916200309163003093A1002093A0005B
:1007B00020916000309161002115310541F42DB781
:1007C0003EB74091640050916500241B350BE091C9
:1007D000A000F091A100E217F307A0F42E1B3F0B3D
:1007E0002817390778F0AC014E5F5F4F24173507A3
:1007F00048F04E0F5F1F5093A1004093A0008193DB
:10080000919302C0E0E0F0E0CF01DF91CF91089535
:100810000F931F93CF93DF93009709F48CC0FC01D3
:100820003297138212820091A2001091A300011549
:10083000110581F420813181820F931F2091A00046
:100840003091A1002817390779F5F093A100E093C2
:10085000A00071C0D80140E050E0AE17BF0750F4CF
:1008600012962D913C911397AD012115310509F197
:10087000D901F3CF9D01DA01338322836081718135
:10088000860F971F8217930769F4EC01288139813D
:10089000260F371F2E5F3F4F318320838A819B8134
:1008A00093838283452B29F4F093A300E093A20065
:1008B00042C01396FC93EE931297ED014991599122
:1008C0009E01240F351FE217F30771F48081918197
:1008D000840F951F029611969C938E93828193812B
:1008E00013969C938E931297E0E0F0E0D801129655
:1008F0008D919C911397009719F0F8018C01F6CF18
:100900008D919C9198012E5F3F4F820F931F2091F4
:10091000A0003091A1002817390769F4309729F415
:100920001092A3001092A20002C0138212821093B0
:10093000A1000093A000DF91CF911F910F91089526
:1009400010E0C5E2D0E003C0FE01C7DE2196C6324A
:08095000D107D1F7F894FFCFA5
:100958000000A4008000060008000C00100017002A
:0E09680020002D0040005A0080001801FF0002
:00000001FF
